:020000040800F2
:10000000605900205D0200088B5400080D4600086E
:100010008954000835110008ED8300080000000035
:100020000000000000000000000000009D0100082A
:100030003515000800000000F9010008F16A000809
:1000400077020008770200087702000877020008AC
:1000500077020008770200083715000877020008C9
:10006000770200083D1500084315000877020008D4
:10007000770200087702000877020008770200087C
:10008000770200087702000877020008770200086C
:1000900039110008770200087702000849150008A6
:1000A000770200087702000877020008770200084C
:1000B000770200087702000877020008770200083C
:1000C000770200087702000877020008770200082C
:1000D0007702000877020008770200087D700008A8
:1000E000770200087702000877020008770200080C
:1000F00077020008770200087702000877020008FC
:1001000077020008770200087702000877020008EB
:100110007702000877020008C16B00087702000828
:1001200077020008C1110008CD110008770200080D
:1001300077020008770200087702000877020008BB
:100140004511000877020008770200088D54000866
:1001500077020008A1140008AD1400087702000817
:10016000770200087702000877020008770200088B
:1001700077020008770200087702000800000000FC
:100180007702000877020008DFF80CD000F0C2FA0E
:10019000004800472DAA0008605900202C4B196820
:1001A0000868B0E8F04F80F30988BFF36F8F4FF015
:1001B000000080F3118870470000000008480068C4
:1001C000006880F308884FF0000080F3148862B65E
:1001D00061B6BFF34F8FBFF36F8F00DF00BF00BF6B
:1001E00008ED00E0DFF80C00016841F470010160E7
:1001F000704700BF88ED00E0EFF30980BFF36F8F19
:10020000134B1A681EF0100F08BF20ED108A20E96A
:10021000F04F106009B44FF0500080F31188BFF325
:100220004F8FBFF36F8F0BF0F1FC4FF0000080F3A6
:10023000118809BC19680868B0E8F04F1EF0100F6B
:1002400008BFB0EC108A80F30988BFF36F8F704746
:1002500040000020EFF3058070470000064880470B
:1002600006480047FEE7FEE7FEE7FEE7FEE7FEE79B
:10027000FEE7FEE7FEE7FEE7B16B00088901000834
:100280002DE9F05F0546002092469B4688460646CB
:10029000814640241BE0284641464746224600F05E
:1002A00070F853465A46C01A914110D31146184669
:1002B000224600F057F82D1A67EB01084F462246F8
:1002C0000120002100F04EF817EB00094E41201EDE
:1002D000A4F10104DFDC484631462A464346BDE826
:1002E000F09F40EA01039B0703D009E008C9121FF1
:1002F00008C0042AFAD203E011F8013B00F8013BE0
:10030000521EF9D27047D2B201E000F8012B491E0B
:10031000FBD270470022F6E710B513460A460446A2
:100320001946FFF7F0FF204610BD421C10F8011BD4
:100330000029FBD1801A704730B50B4601460020DA
:100340002022012409E021FA02F59D4205D303FA97
:1003500002F5491B04FA02F52844151EA2F1010218
:10036000F1DC30BD202A04DB203A00FA02F1002043
:1003700070479140C2F1200320FA03F319439040E3
:100380007047202A04DB203A21FA02F0002170474E
:1003900021FA02F3D040C2F12002914008431946ED
:1003A00070472DE9FE4F804681EA0300C00F0C46DE
:1003B000009021F0004123F00045B8EB0200A94174
:1003C00005D24046214690461C460B46024623F085
:1003D0000040104347D0270DC7F30A00C3F30A516A
:1003E0000290401A019040286BDAC3F3130040F4E6
:1003F000801B0098924620B10023D2EB030A63EBE6
:100400000B0B01985946C0F140025046FFF7AAFF76
:1004100006460D4650465946019A00F08DF910EBFC
:1004200008006141002487EA115284EAE7731A4305
:1004300040D0009A62B3019A012A4FEA075215DCB4
:10044000001B61EB02014FF0004202EA0752CDE9C6
:100450000042001C41F5801132462B4600F08DF918
:1004600003B0BDE8F08F40462146F9E7001B61EB81
:100470000201001C41F5801300185B412018A2F511
:10048000001747EB030140EAD570B6196D4111E042
:100490006D084FEA360645EAC0754FEA0752001B61
:1004A00061EB0201001C41F5801149084FEA300060
:1004B0000019514132462B4603B0BDE8F04F00F021
:1004C0004DB90098012240000023D0EB020263EBFB
:1004D000E073009821464FEAE074B8EB000061EB4E
:1004E0000401E9E783F000435BE781F0004158E74E
:1004F0002DE9FE4F81EA030404F0004421F000419D
:1005000000944FF0000B23F0004350EA01045ED04A
:1005100052EA03045BD0C3F30A54C1F30A552C44D6
:10052000A4F2F3340194A0FB0254C1F3130141F48B
:100530008011C3F3130343F4801301FB024400FB57
:10054000034E840A970A44EA815447EA8357A4FB7E
:10055000076802958D0A05FB07854FEA932C04FB7B
:100560000C542705029D4FEA065847EA1637B5EBAB
:1005700008056EEB070C870E920E47EA811742EAD8
:100580008312A7FB0201B6EB0B0164EB00042B0DF9
:1005900043EA0C335E1844EB1C50DA465146E7FB45
:1005A0000201C5F313044FEA0B3343EA14534FEA35
:1005B0000432019C43EA0603A4F10C040294009C5B
:1005C000CDE900B400F0D9F803B0BDE8F08F002009
:1005D0000146F9E72DE9F04D81EA030404F0004BF0
:1005E00021F0004514464FF0000A23F0004150EA84
:1005F000050220D054EA01021DD0C5F30A57024675
:10060000C5F31303C1F31300C1F30A5640F4801578
:1006100043F48013A7EB0608101BD64608F2FD38FA
:1006200073EB050002D308F1010801E092185B4169
:10063000B8F1000F03DA00200146BDE8F08D00207C
:100640004FF48011064684460EE0171B73EB050736
:1006500005D3121B63EB050306434CEA010C490862
:100660004FEA300092185B4150EA0107EDD152EA9F
:10067000030012D082EA040083EA0501084305D092
:10068000101BAB4106D20122002306E000224FF0EE
:10069000004302E06FF0010253101AEB06004CEB2E
:1006A000085110EB0A0041EB0B01BDE8F04D00F0E2
:1006B00055B8C1F30A52C1F3130140F2FF3341F4BC
:1006C00080119A4202DA00200146704740F233431B
:1006D0009A42A2F2334202DC5242FFF752BEFFF7C7
:1006E00041BE000030B5041E71F1000404DB4FF080
:1006F0000044404264EB0101141E73F1000405DB69
:100700001C464FF00043524263EB0403994208BF7A
:10071000904230BD064C074D06E0E06840F0010312
:1007200094E8070098471034AC42F6D3FFF730FD49
:100730004CCB00086CCB0008202A06DBCB17203AF4
:1007400041FA02F043EAE07306E041FA02F3D040D6
:10075000C2F12002914008431946704710B5141E9B
:1007600073F1000408DA401C41F1000192185B416A
:100770001A4301D120F0010010BD2DE9F04D924641
:100780009B4611B1B1FA81F202E0B0FA80F2203258
:100790009046FFF7E7FD04460F4640EA0A0041EAAB
:1007A0000B0153465A46084313D0114653EA010041
:1007B00019D0C8F140025046FFF7E3FD05460E464A
:1007C000504659464246FFF7CDFD084305D001206B
:1007D00004E020463946BDE8F08D0020054346EA96
:1007E000E0762C4337430A986305E40AA0EB08003F
:1007F0000022FD0A44EA47540A3002D5002001468F
:10080000E9E7010510196941DDE908450019694169
:10081000BDE8F04DA2E770B58C1810F8015B15F03B
:10082000070301D110F8013B2A1106D110F8012B62
:1008300003E010F8016B01F8016B5B1EF9D12B0787
:1008400005D40023521E0DD401F8013BFAE710F83D
:10085000013BCB1A921C03E013F8015B01F8015B2A
:10086000521EF9D5A142D8D3002070BD9FED241AA5
:10087000B5EE002A4CF248330021B7EE004AC0F62C
:10088000000320EE010A30EE020ABDEEC01AB5EEFA
:10089000C00A11EE100AF1EE10FA9FED1A1AB8BF55
:1008A000013802EE100AB8EEC22A30EE420A9FED7D
:1008B000162A20EE010ABDEEC01A11EE100A30EE23
:1008C000021A0246B1EB502F18BF002202EE102A86
:1008D00003EB8203B1EB502F18BFB0EE410AB8EE24
:1008E000421A93ED002A93ED013A30EE410A34EEBC
:1008F000401A20EE030A21EE021A31EE000A704778
:1009000083F9223E00000044000000C49FED221A3B
:100910004CF248330021B7EE004AC0F6000320EE47
:10092000010ABDEEC01AB5EEC00A11EE100AF1EED2
:1009300010FA9FED1A1AB8BF013802EE100AB8EE8D
:10094000C22A30EE420A9FED162A20EE010ABDEEC1
:10095000C01A11EE100A30EE021A0246B1EB502F07
:1009600018BF002202EE102A03EB8203B1EB502FD6
:1009700018BFB0EE410AB8EE421A93ED002A93ED8B
:10098000013A30EE410A34EE401A20EE030A21EE1D
:10099000021A31EE000A704783F9223E000000443B
:1009A000000000C407F05ABD07F0EEBDFFF75EBFC0
:1009B000F0EE400AF5EEC00AF1EE10FA02DDB0EEFC
:1009C000600A7047B1EE600AFBE70000002803D020
:1009D0009FED020A80ED000A704700000000000051
:1009E000002803D0B3EE060A80ED000A704700002D
:1009F00070B52DED0C8B84B006460C4615469FED68
:100A0000990AF0EE408A9FED970AB0EE409A9FED6A
:100A1000950AF0EE40BA9FED930AF0EE409A9FEDF2
:100A2000910AB0EE40AA0EB104B11DB904B0BDECFC
:100A30000C8B70BD8C48FFF7C9FF8C48FFF7D0FFC7
:100A40008A48D0ED000A9FED8A1A60EE810AB0EE66
:100A5000600A00F025F9F0EE408A28EEA80AF0EED0
:100A6000408A8248D0ED000AB0EE001A60EE810A9A
:100A70009FED7F1A60EE810AB0EE600A00F010F977
:100A8000B0EE409A29EE090AB0EE409ADFED790AFD
:100A9000B7EE000A00EEA80ADFED770A00EEC90AF9
:100AA000DFED760A20EE200A754880ED000A6E48D8
:100AB00090ED000ADFED730A80EE201AB7EE000A0F
:100AC00031EE000A20EE000A6D48D0ED000A80EEFB
:100AD000801A6D4880ED001A94ED000AB5EEC00A48
:100AE000F1EE10FA0DD194ED010AB5EEC00AF1EE67
:100AF00010FA06D194ED020AB5EEC00AF1EE10FA32
:100B000046D09FED580AB0EE408A00200190029036
:100B10000390D4ED000A60EEA00A94ED011AD4ED22
:100B2000011A41EE210A94ED021AD4ED021A41EEA7
:100B3000210AB0EE600A00F0A9F8B0EE408A94ED08
:100B4000000A20EE080A8DED010A94ED010A20EE5C
:100B5000080A8DED020A94ED020A20EE080A8DEDD6
:100B6000030ADDED010AF1EE600AB0EE600AFFF75C
:100B700019FFF0EE409A9DED031AF0EE410A9DED4B
:100B8000021AB0EE410AFFF70FFFB0EE40AA07E0ED
:100B90009FED340AF0EE409A9FED320AB0EE40AA83
:100BA00095ED000AB5EEC00AF1EE10FA0DD195ED03
:100BB000010AB5EEC00AF1EE10FA06D195ED020A6F
:100BC000B5EEC00AF1EE10FA3CD0B0EE690A00F0C2
:100BD00067F8B0EE408AB0EE690AFFF7E7FEB0EEC4
:100BE00040DAB0EE4A0A00F05BF8F0EE40AAB0EE50
:100BF0004A0AFFF7DBFEB0EE40BA28EE2A0AD5ED2E
:100C0000010A20EE200AD5ED000A0DEE200A68EE5A
:100C10000B0A95ED021A00EE810AB0EE40CA95ED7E
:100C2000010A20EE0B0AD5ED020A0AEEE00AF0EE08
:100C300040CAF0EE6C0AB0EE4C0AFFF7B5FEF0EEDB
:100C400040BA03E09FED070AF0EE40BAB0EE4A1A50
:100C5000F0EE690AB0EE6B0A304608F06BFC00BF9C
:100C6000E4E600000000000024020020280200202A
:100C700035FA8E3CC1BFAD3B9DF8C5362F7C1C417B
:100C80002C020020506CC24A3002002010B507F040
:100C9000A3FDB7EE001AC1EE000AB0EE600A10BD67
:100CA000FFF734BE2DE9F0412DED028B9AB00546D9
:100CB000B0EE408A0E4617469846002017901890CE
:100CC00019901490159016904DB146B13FB1B8F1FE
:100CD000000F04D0B5EEC08AF1EE10FA05D1002065
:100CE0001AB0BDEC028BBDE8F08196ED000A8DEDE7
:100CF000170A96ED010A8DED180A96ED020A8DEDA0
:100D0000190A97ED000A8DED140A97ED010A8DED91
:100D1000150A97ED020A8DED160A17AA14A928469E
:100D200008F020FA402104A8FFF7F4FA0020009010
:100D3000019002900390002417A904A80AF010FD66
:100D400000BF30E004A800EB041090ED000AD5EDE0
:100D5000000A20EE200A04A800EB0410D0ED010ADE
:100D600095ED011A00EE810A04A800EB0410D0ED05
:100D7000020A95ED021A00EE810A04A800EB0410A5
:100D8000D0ED030A95ED031A00EE810A20EE080A61
:100D9000F0EE000A80EE201A684600EB840080ED39
:100DA000001A601CC4B2042CCCDB002410E005EB5C
:100DB000840090ED000A684600EB8400D0ED000A44
:100DC00030EE200A05EB840080ED000A601CC4B2FE
:100DD000042CECDB28460AF099FA012080E7000099
:100DE00001221021014801F03ABA0000000002403F
:100DF00000221021014801F032BA00000000024038
:100E00007047000001221146014801F028BA000095
:100E10000004024000220121014801F020BA000034
:100E20000004024030B5437804781B021BB2234310
:100E300000EE103A194CB8EEC00AD4ED000A20EECC
:100E4000200A81ED000AC37885781B021BB22B4370
:100E500000EE103AD4ED000AB8EEC00A20EE200AE7
:100E600081ED010A437904791B021BB2234300EE92
:100E7000103AB8EEC00A20EE200ADFED090A81ED33
:100E8000020AD0F8060020F07F4000EE100AB8EE0B
:100E9000400A20EE200A82ED000A30BDB00000209A
:100EA00000401C42704709F0E9BE08F0CBBF0000CB
:100EB00010B542780378120212B21A4300EE102ADB
:100EC000124BB8EEC00AD3ED010A20EE200A81EDE4
:100ED000000AC2788478120212B2224300EE102A6D
:100EE000D3ED010AB8EEC00A20EE200A81ED010A16
:100EF00042790079120212B2024300EE102AB8EED3
:100F0000C00A20EE200A81ED020A10BDB0000020C8
:100F100010B5FFF775FFFFF7C5FF08F055FC08B1E6
:100F2000802402E008F0BCFB044608F01BFE10B170
:100F300044F0400010BD08F0A7FD204310BD0000A4
:100F40002DE9FC410746002016460D460090019011
:100F5000FFF74EFF922000F0BDF8062269461220EE
:100F600000F09AF8FFF73CFF9DF801009DF8001093
:100F7000000200B2084300EE100A464CB8EEC00A68
:100F8000D4ED000A20EE200A85ED000A9DF803004A
:100F90009DF80210000200B2084300EE100AD4EDE2
:100FA000000AB8EEC00A20EE200A85ED010A9DF87D
:100FB00005009DF80410000200B2084300EE100A7C
:100FC000B8EEC00A20EE200A85ED020AFFF722FFE4
:100FD00008226946002000F05FF8FFF713FF9DF834
:100FE00000000F2830D19DF803009DF80210000288
:100FF00000B2084300EE100AD4ED010AB8EEC00AB0
:1010000020EE200A87ED000A9DF805009DF80410E7
:10101000000200B2084300EE100AD4ED010AB8EE57
:10102000C00A20EE200A87ED010A9DF807009DF80E
:101030000610000200B2084300EE100AB8EEC00A23
:1010400020EE200A87ED020AFFF7D2FEA22000F070
:1010500041F802226946222000F01EF8FFF7C0FE88
:101060009DF800009DF80110C00040EA5110B0F555
:10107000806F01DBA0F5006000EE100AB4EE001AEC
:10108000F8EEC00AB3EE070A00EE810A86ED000A08
:10109000BDE8FC81B000002070B514460D4640F05C
:1010A000800000F017F806E0552000F013F8641EE9
:1010B00005F8010BE4B2002CF6D170BD10B50C465A
:1010C00040F0800000F006F8552000F003F8207092
:1010D00010BD000001B582B04FF47A70009001237A
:1010E00001AA02A9024802F0D5FB9DF804000EBD3A
:1010F0003005002002784078D20042EA5010B0F566
:10110000806F01DBA0F5006000EE100AB4EE001A5B
:10111000F8EEC00AB3EE070A00EE810A81ED000A7C
:10112000704710B50C46FFF7D5FF2046BDE81040CC
:10113000FFF7D0BFFEE70000014800F07CBB0000D5
:101140008C040020014800F076BB0000B4040020AD
:1011500038B50D4A4FF400730824136000239360E0
:10116000C2E90334094A040A14705070080A9070E6
:10117000D170137153719371D3716B460249044856
:1011800000F0F9F938BD0000E0480020AC01002073
:101190008C04002010B50A460849D1F8BC12D1F8D9
:1011A0001412002901D0012010BD0146034805F0AA
:1011B000C3FFBDE81040014805F0CEBF7C4B0020C6
:1011C000014800F0B1BD0000000900202DE9F05FEA
:1011D000AB48AC4BAC4CC06CAA4DAB4EA94F0068B1
:1011E000A849DFF8A492DFF89CA2DFF89CB2DFF8F0
:1011F00094E2A54A483B603418351836303F09F16F
:1012000078090AF1300A4FF4006C0BF1300BAEF1A3
:10121000180E884223D99B49543926E0A84233D17D
:101220004FF020080AE0504535D1E04606E000BF07
:101230004FF4001802E000BF4FF0006811EA080FF9
:101240007CD09049884253D9904205D0984203D02F
:10125000A04201D0A8422FD14FF0200C45E08A498E
:10126000A831884203D987495839096805E0864979
:10127000483188428549F8D949689042D0D098428F
:10128000CED0A042CCD0C9E7B042CED0B842CCD06C
:101290004845CAD0C7E75845CAD07045C8D0DFF81E
:1012A000E88108F190084045C2D0DFF8D88108F104
:1012B00048084045C0D1BBE7B04216D0B84214D070
:1012C000484512D0504510D0584509D0704507D038
:1012D0006D499031884203D06A494831884202D131
:1012E0004FF4001C01E04FF0006C66484C382AE0D7
:1012F0006549A831884229D9904205D0984203D047
:10130000A04201D0A84202D14FF0200C19E0B04217
:1013100017D0B84215D0484513D0504511D0584584
:1013200009D0704507D058499031884203D05549BB
:101330004831884203D14FF4001C02E09DE04FF099
:10134000006C50485038C0F800C052E04E49483157
:10135000884227D9904205D0984203D0A04201D0BC
:10136000A84202D14FF0200C18E0B04216D0B8428B
:1013700014D0484512D0504510D0584509D070457A
:1013800007D041499031884203D03E4948318842D4
:1013900002D14FF4001C01E04FF0006C3B48C0F854
:1013A0000CC026E0904205D0984203D0A04201D064
:1013B000A84202D14FF0200C18E0B04216D0B8423B
:1013C00014D0484512D0504510D0584509D070452A
:1013D00007D02D499031884203D02A4948318842AC
:1013E00002D14FF4001C01E04FF0006C2748C0F818
:1013F00008C0274C207880070CD5207820F0020008
:101400002070207840F0040020700122114621480D
:1014100000F025FF6078204D80070CD5607820F023
:1014200002006070607840F00400607001221021BA
:10143000284600F014FFA07880070CD5A07820F093
:101440000200A070A07840F00400A07001221021DA
:10145000284600F004FF09F0B9F8207840070CD5C1
:10146000207820F004002070207840F008002070E0
:101470000A48016841F001010160BDE8F09F0000E9
:1014800030050020586402401060024000600240B5
:10149000DC0000200004024000000240103C01403B
:1014A000014800F041BC000060090020014800F044
:1014B0003BBC00004008002001681823CAB2103A63
:1014C000B2FBF3F2054B6FF30901032A9B5CC36582
:1014D00000D9091D816508467047000058C2000800
:1014E00010B5014600208B698A6A4FF0C07453B171
:1014F000B3F5005F15D072B1012A0CD0022A0AD0D0
:10150000032A09D104E01AB1012A06D0022A03D124
:10151000C96AC90100D5012010BDC96AA142FAD02B
:1015200010BD002AF7D0012AF2D0022AF3D0032AF4
:10153000F3D010BD7047012000F088BD082000F0F6
:1015400085BD102000F082BD202000F07FBD72B666
:10155000FEE790F82020012A07D0022A05D0416A30
:1015600041F48021416201207047006842690A43CA
:10157000426100207047F0B590F820500468A468DC
:10158000012D05D0022D03D0416A41F480214DE0A8
:1015900014F0406F01D1E50045D5C4F30164012585
:1015A000A5401D608D684FF4C0739DB1CE68354372
:1015B0004E6845EAC605066803EB0417F5514FF47B
:1015C000C275076805EB04150E697E51097D012976
:1015D00005D009E00E88CD6845EA4655EBE701687D
:1015E0004E5946F480764E511179D2F805504FF499
:1015F000C67641EA0521056806EB0416A951117863
:10160000D2F801204FF4C47541EA0221026805EBCB
:1016100004155151006803EB0411425842F00102D5
:1016200042500020F0BD416A41F4001141620120A6
:10163000F0BD000010B590F82020012A07D0022A42
:1016400005D0416A41F480214162012010BD3B4830
:10165000D0F8002242F00102C0F80022D0F80022A7
:1016600022F47C52C0F80022D0F800224B6A42EAF1
:101670000322C0F800220A7D02F01F0301229A40D3
:10168000D0F81C329343C0F81C32CB69B3B9D0F800
:101690000C329343C0F80C328C894B6864F31F43BF
:1016A0004C6900EBC404C4F840320C890B6864F345
:1016B0001F434C6900EBC404C4F84432CB69012BCE
:1016C00016D1D0F80C321343C0F80C320C884B689A
:1016D00064F31F434C6900EBC404C4F840320C8926
:1016E000CB6864F31F434C6900EBC404C4F8443274
:1016F0008B69002BD0F804320ED01343C0F80432AB
:101700000B69002BD0F8143208D01343C0F8143200
:10171000096A012904D008E09343EFE79343F5E712
:10172000D0F81C121143C0F81C12D0F8001221F09E
:101730000101C0F80012002010BD0000006400404C
:10174000704770B590F82040012C05D0022C03D0D2
:10175000416A41F4802128E0046809B32469A407A0
:1017600020D04FF4D874056804EB01142D5915F0FE
:101770000405956005682D591AD0ED085560056877
:101780002C5904F00204D4604FF4DA74056804EBB9
:1017900001142E5906F00F06082E0CD308250DE073
:1017A000E468DCE7416A41F400114162012070BD48
:1017B0006D0D1560E3E72D5905F00F0515610568FE
:1017C0002D59C5F30725956105682C59240C5461E2
:1017D0004FF4DC72046802EB0112A4581C70046818
:1017E000A458240A5C700468A458240C9C700468F3
:1017F000A258120EDA704FF4DE72046802EB011286
:10180000A4581C710468A458240A5C710468A45884
:10181000240C9C710468A258120EDA71006829B178
:10182000016941F020010161002070BDC16841F0F3
:101830002001C160F8E72DE9F05F0546006800244B
:101840004669D0F804908768D0F80CB0D0F810A0A2
:10185000D0F81880F10748D0F90714D00121816031
:10186000B80703D5284600F058FA0CE0780702D5EF
:101870004FF4006407E0380702D54FF4805402E0CB
:10188000284600F049FAF80516D529684FF480700B
:101890008860B80503D5284600F041FA0CE07805C9
:1018A00002D544F4005407E0380502D544F48044DE
:1018B00002E0284600F032FAF80316D529684FF402
:1018C00080308860B80303D5284600F02AFA0CE07F
:1018D000780302D544F4004407E0380302D544F409
:1018E000803402E0284600F01BFA300707D55FEA93
:1018F000CB6004D52968102044F40074C8607007D8
:101900004FF0080707D55FEA0B7004D52868C76059
:10191000284600F099F9B00706D52868C068800706
:1019200002D0284600F092F9700607D55FEACA6037
:1019300004D52968102044F480640861B00607D5F6
:101940005FEA0A7004D528680761284600F0B4F9F8
:10195000F00606D528680069800702D0284600F006
:10196000ACF9B00308D55FEAC96005D52968102035
:101970004860284600F0A2F9F00307D55FEA097035
:1019800004D528684760284600F0CCF9300446D5D5
:101990005FEA497040D5F00504D55FEAC87001D010
:1019A00044F00104B00504D55FEA887001D544F025
:1019B0000204700504D55FEA487001D544F00404C0
:1019C000300529D518F0700F26D008F07000402897
:1019D00015D006DC102809D020280AD0302816D1CE
:1019E0000AE050280ED0602811D10EE044F008041F
:1019F0000DE044F010040AE044F0200407E044F055
:101A0000400404E044F0800401E044F48074286859
:101A1000816921F070018161296804204860002CEF
:101A200005D0686A204368622846FFF789FEBDE852
:101A3000F09F70B5040003D094F8200010B104E0CA
:101A4000012070BD204600F081F82068016841F057
:101A50000101016000F008FC0546052604E000F0E5
:101A600003FC401B0A2811D820684068C007F6D044
:101A70002068016821F00201016000F0F5FB0546D5
:101A80000BE000F0F1FB401B0A2806D9606A40F425
:101A90000030606284F82060D2E7206840688007E8
:101AA000EFD4207E0128206801683DD021F080011C
:101AB0000160607E01282068016838D021F0400173
:101AC0000160A07E01282068016833D021F0200148
:101AD0000160E07E0128206801682ED041F01001ED
:101AE0000160207F01282068016829D021F00801C9
:101AF0000160607F01282068016824D021F0040182
:101B00000160D4E902010843D4E9041211430843F7
:101B10006168491E08432168C86100206062012095
:101B200084F82000002070BD41F08001C0E741F042
:101B30004001C5E741F02001CAE721F01001CFE7DD
:101B400041F00801D4E741F00401D9E7F0B587B0CE
:101B5000044614216846FEF7DDFB364B3648DFF8B5
:101B6000D0E01968D4F800C0334A032502260927BB
:101B700010300024491CF44522D11960012907D1F5
:101B8000016841F000710160006800F0007005908C
:101B9000106840F0080010601068CDE9005600F0B1
:101BA0000800CDE9047069462448CDE9024500F0FB
:101BB00059FA00220621142000F096FE142032E08B
:101BC000DFF87CE0F44530D1D0F800C04CF0806CF8
:101BD000C0F800C0D0F800C001290CF0806CCDF82E
:101BE00014C0196007D1016841F0007101600068FC
:101BF00000F000700590106840F00200106010685E
:101C000002AB00F0020005906020CDE9000683E8F9
:101C1000B00069460B4800F025FA0022062140205A
:101C200000F062FE402000F051FE07B0F0BD000061
:101C3000006400402C00002030380240000C0240BC
:101C400000680040000402407047000000B589B001
:101C500007AB6A460021FFF774FD00991548A1F50E
:101C60000071013914D0012910D141894182BDF898
:101C70001C1049BA4181BDF81E1049BA8181BDF8D6
:101C8000201049BAC1819DF82210017409B000BD2D
:101C900001880181BDF81C1049BA0180BDF81E10F1
:101CA00049BA4180BDF8201049BA81809DF82210C0
:101CB0008171EBE7CC480020704770477047000007
:101CC00070B5044690F82000012804D0606A40F402
:101CD0000020606218E0022084F82000206801687B
:101CE00021F00101016000F0BFFA05460EE000BFDF
:101CF00000F0BAFA401B0A2808D9606A40F40030A4
:101D00006062052084F82000012070BD20684068D2
:101D1000C007EDD1606270BD704770477047704773
:101D200070477047704700002DE9F84304464FF0B4
:101D30000009CDF8009063484FF41651A56D006876
:101D4000B0FBF1F72E6894F85C10082000FA01F15E
:101D500031420FD021680A6852070BD50A6822F079
:101D600004020A6094F85C108840A860606D40F03E
:101D70000100606594F85C104FF0010808FA01F06A
:101D8000304208D021684969090604D5A860606D11
:101D900040F00200606594F85C10042088403042F6
:101DA00008D021680968890704D5A860606D40F0F3
:101DB0000400606594F85C1010208840304218D010
:101DC00021680968090714D5A860206801684903DB
:101DD00004D50068000308D5A16C07E00168C905B7
:101DE00003D4016821F008010160216C09B120468B
:101DF000884794F85C1020208840304231D0216818
:101E00000968C9062DD5A86094F835000528206812
:101E1000016806D0490347D5006800031DD4616CF2
:101E20001CE021F0160101602068416921F0800169
:101E30004161206C08B9A06C20B12068016821F0D4
:101E40000801016094F85C103F208840A86084F885
:101E5000358084F83490216D1FE0E16B09B1204694
:101E60008847606D00282BD0606DC00714D0052016
:101E700084F835002068016821F0010101600098B4
:101E8000401C0090B84203D820680068C007F6D113
:101E900084F8358084F83490E16C002910D001B0CA
:101EA0002046BDE8F04308470168C905D5D401685C
:101EB00021F01001016084F8358084F83490CCE77B
:101EC000BDE8F8833C0000202DE9F041044600F015
:101ED000CBF906465CB1022084F83500002584F871
:101EE00034502068016821F0010101600DE00120FB
:101EF000BDE8F08100F0B8F9801B052805D9202045
:101F00006065032084F83500F2E720680068C007A8
:101F1000F0D12268116820480140D4E90103184338
:101F2000D4E903363343184363691843A36918435C
:101F3000E3691843236A18430843616A042903D1FB
:101F4000D4E90B1319430843106020684069666A9E
:101F500020F0070130460E43012704280CD1A06A67
:101F60000643E06A40B12046FFF7BAFA20B14020AC
:101F7000606584F83570BAE7206846612046FFF74F
:101F80009BFA94F85C203F2191408160656584F85C
:101F900035700020ACE700003F8010F070B50446BB
:101FA00000F062F90546601C02D004480078044441
:101FB00000F05AF9401BA042FAD370BD3000002057
:101FC00010B5204C10281AD0202824D0082830D052
:101FD000012813D109F0C2FF01280FD004F10C0130
:101FE000206909F069FDE068002807D016494FF024
:101FF00080500860BFF34F8FBFF36F8F10BD02207A
:1020000007F032FF607840F001006070A07840F087
:102010000100A07006E0012007F026FF207840F0C4
:102020000100207020790028E8D0BDE8104008F0B9
:10203000CDBA032007F018FFE07840F00100E0700F
:1020400010BD0000DC00002004ED00E0044910B5E4
:102050000A68024202D00860FFF7B2FF10BD00001C
:10206000143C01402DE9F84FDFF8BCA10022012506
:1020700003264FF00F090AF1040BAAF1040E00BF6A
:102080000B6805FA02F42340A34270D10F7907F0E0
:102090000307012F01D0022F16D187684FEA4208AB
:1020A00006FA08FC27EA0C07D1F80CC00CFA08FC69
:1020B0004CEA070CC0F808C04768A7430C79C4F382
:1020C000001494403C4344600C79E443A4070AD0D4
:1020D000C4684FEA420C06FA0CF7BC438F6807FA53
:1020E0000CF72743C7600C7904F00304022C12D1CB
:1020F000D40800EB840CDCF820405707FF0E09FAE7
:1021000007F824EA0804D1F8108008FA07F848EA2A
:102110000408CCF8208004684FEA420C06FA0CF759
:10212000BC430F7907F0030707FA0CF72743076052
:102130004C6814F4403F70D03C4C276847F480470B
:102140002760246822F0030704F480440094384C8C
:1021500007EB040CDCF8084897074FEA177809FAF0
:1021600008F7BC43334FB84202D1002724E054E0C3
:10217000314FB84201D101271EE0304FB84201D1A2
:10218000022719E02E4FB84201D1032714E02D4F4A
:10219000B84201D104270FE02B4FB84201D10527E7
:1021A0000AE02A4FB84201D1062705E0284FB8427D
:1021B00001D1072700E0082707FA08F72743CCF8E2
:1021C0000878DAF800405746D1F804C09C435FEA2B
:1021D000CC2C00D51C433C60DBF800405F46D1F8B6
:1021E00004C09C435FEA8C2C00D51C433C60DEF8A5
:1021F00000407746D1F804C09C435FEA8C3C00D590
:102200001C433C60084F083F3C68D1F804C09C4325
:102210005FEACC3C00D51C433C60521C102AFFF402
:102220002FAFBDE8F88F0000083C01404438024061
:10223000003001400000024000040240000802405B
:10224000000C02400010024000140240001802403E
:10225000001C02400069084000D0012070470AB10C
:10226000816170470904FBE70148806870470000FE
:102270003000002070B5040025D094F83D00002502
:1022800020B984F83C50204600F052FA242084F80B
:102290003D002068016821F00101016020680168AB
:1022A00041F4004101602068016821F400410160AF
:1022B00001F00CF84D4A6168914201D84C4900E0A8
:1022C0004C49884201D2012070BD4B492368B0FBC4
:1022D000F1F15E6826F03F060E435E60636893424C
:1022E00006D94FF4967359434FF47A73B1FBF3F167
:1022F0002368491C1E6A26F03F0631431962616853
:10230000914210D84900401EB0FBF1F2521CC2F3BA
:102310000B02042A01D2042022E0B0FBF1F0401CA1
:10232000C0F30B001CE0A268F2B301EBC10303EBA6
:102330000116431EB3FBF6F35B1C43F480431B05FD
:1023400049D092B301EBC10202EB0111401EB0FB78
:10235000F1F0401CC0F30B0040F4804040F400401A
:102360002168CA694CF6FF739A431043C861D4E9E7
:10237000071001432068026822F0C0021143016087
:10238000D4E9030101432068826848F2FF339A438D
:1023900011438160D4E9050108432168CA6822F02D
:1023A000FF021043C86001E00EE016E020680168FB
:1023B00041F0010101602564202084F83D0025637F
:1023C00084F83E50002070BD01EB4106431EB3FB74
:1023D000F6F35B1CB3E70120C2E701EB4101401EAD
:1023E000B0FBF1F0401CC0F30B00B7E7A086010082
:1023F00080841E0000093D0040420F002DE9FF4F80
:1024000083B09A46DDE9118793460446DDF8409093
:10241000FFF72AFF054694F83D00202870D11923C4
:10242000012274492046009502F006FA0028F5D1F1
:1024300094F83C00012863D0012084F83C00206817
:102440000168C90703D1016841F0010101602068FA
:10245000016821F400610160222084F83D004020E1
:1024600084F83E0000262664C4F82490A4F82A804C
:10247000608D20856048E062CDE9007553465A467C
:102480002046049902F0DAF8002879D1208DD0B1E5
:10249000012821D00228206824D041698069009059
:1024A000208D032866D801282BD0544902283B46AA
:1024B0004FF00002009557D08846204602F0BCF944
:1024C00000285DD13AE02068416981690091016886
:1024D00041F4007101607DE02068016821F48061B1
:1024E0000160F0E7016821F4806101602068016803
:1024F00041F400610160206841698069009069E0F1
:1025000075E02A463946204602F03CFA88BB54E082
:102510002068016841F40071016020680069616A07
:102520000870606A401C6062218D491E2185618DA2
:10253000491E618521680969017042E020680168CF
:1025400021F48061016020680069616A0870606A36
:10255000401C6062208D401E2085608D401E60857D
:102560003B46002241460095204602F065F900B93D
:10257000CEE705E02A463946204602F003FA18B1B4
:10258000012007B0BDE8F08F20680069616A08701B
:10259000606A401C6062208D401E81B22185608D82
:1025A000401E608520684269D243520712D4032935
:1025B00003D1016821F48061016020680069616ACB
:1025C0000870606A401C6062208D401E2085608D0E
:1025D000401E6085208D00287FF462AF202084F8A3
:1025E0003D0084F83E6084F83C600020C9E702208A
:1025F000C7E70000020010000000FFFF0400010018
:102600002DE9FF4F83B09A46DDE9119793460446C2
:10261000DDF84080FFF728FE054694F83D002028AD
:102620007FD11923012240492046009502F004F988
:10263000002876D194F83C00012872D0012084F85B
:102640003C0020680168C90703D1016841F001011D
:1026500001602068016821F400610160212084F894
:102660003D00402084F83E0000262664C4F8248003
:10267000A4F82A90608D20852C48E062CDE9007591
:1026800053465A462046049902F056F870B930E095
:102690002A463946204602F0ADF958B1206C04288C
:1026A00004D12068016841F400710160012007B085
:1026B000BDE8F08F606A216800780861606A401C9C
:1026C0006062218D491E89B22185628D521E62850C
:1026D00022685369DB435B070BD469B10078106152
:1026E000606A401C6062208D401E2085608D401E07
:1026F0006085208D0028CBD12A463946204602F03D
:102700006FF80028CAD154F83D0B016841F40071FC
:102710000160202004F81E09E67766770020C6E7EE
:10272000FFE70220C3E70000020010000000FFFFE7
:10273000F0B587B0044614216846FDF7EBFD1A4951
:10274000206888422DD11948016841F004010160D8
:10275000016801F004010591016841F00101016087
:102760000068122400F0010005904FF4007001256C
:10277000032604278DE8F10069460D48FFF772FC37
:1027800028028DE8F10069460A48FFF76BFC07480C
:102790001030016841F400010160006800F400009D
:1027A000059007B0F0BD0000005C004030380240EA
:1027B000000802400000024002488168027811448B
:1027C00081607047300000200B4810B5016841F46B
:1027D00000710160016841F480610160016841F4A9
:1027E00080710160032000F09FF80F2000F006F8D0
:1027F00000F050F8002010BD003C024030B5054606
:102800001F4887B00024016841F010010160006892
:1028100006A900F01000009001A800F031FD049816
:10282000A8B100F053FD40001649174AB0FBF1F182
:102830001648491E026040F2E732C0E90324C0E9AD
:102840000114846101F092F9040003D015E000F056
:102850003DFDE9E70D4801F02FFA04000DD13620C7
:1028600000F034F8102D07D200222946362000F05F
:102870003BF80748056000E0012407B0204630BD62
:102880004038024040420F0000100040C0090020C4
:10289000340000200C4882B0016841F4804101609E
:1028A000006800F4804000900748001F016841F074
:1028B000805101600068002200F0805000900F21DC
:1028C000901E02B000F010B844380240002809DB26
:1028D00000F01F02012191404009800000F1E0203A
:1028E000C0F8001170470000F0B40E4B1B680C4696
:1028F000C3F30223C3F10705042D00D90425191DD4
:10290000072901D2002300E0DB1E012606FA05F1AB
:10291000491E214099409E40761E16403143F0BC2E
:1029200005F08BBD0CED00E0064900F007020868D9
:102930004FF6FF03184040EA0220034A10430860A4
:10294000704700000CED00E00000FA057047D0F879
:10295000E00404F08BBE01EBC10200EB8202D0F870
:10296000E004126A04F0ACBD01EBC10200EB82028C
:10297000D0F8E004D2F8602204F010BED0F8E004F1
:1029800004F076BE0A0601F00F0101EBC10100EB75
:10299000810101D5143101E001F51571006805F0E0
:1029A000C3BB70B5044601F00F002279904201D9F3
:1029B000012070BD0B0601F00F0101EBC10104EB1A
:1029C00081014FF001024FF0000502D54A75143124
:1029D00003E081F8555201F515718D70087094F877
:1029E0009404012808D084F89424206805F028FA7B
:1029F00084F89454002070BD022070BD2DE9F04190
:102A000004460F0601F00F0000EBC00104EB81014A
:102A10004FF001064FF0000502D54E75143103E06A
:102A200081F8555201F51571C2F30A0208708A60E7
:102A30000B714A7802B14883022B00D14D7194F892
:102A40009404012809D084F89464206805F07EF984
:102A5000284684F89454BDE8F0810220FBE710B5C5
:102A600001F00F0404EBC40100EB8101C1E99823DC
:102A70000023C1F8683281F8553281F854428379D5
:102A800001F51571012B00D1CA618279006805F04A
:102A90002FFA002010BD70B504460D4601F00F005E
:102AA0002179884201D9012070BD29064FF0000626
:102AB0004FF0010206D500EBC00104EB81014A751D
:102AC000143107E005EBC50104EB810181F8556283
:102AD00001F515718A70087094F89404012807D0E4
:102AE00084F89424206805F0D7F9280702D007E07D
:102AF000022070BDA17904F29C42206805F074F9AF
:102B000084F89464002070BD10B501F00F0404EB4C
:102B1000C40100EB8101C1E9082300238B6201237A
:102B20004B7501F8144F8379012B00D1CA6182796A
:102B3000006805F0DDF9002010BD00002DE9FC5F04
:102B400005680446284605F069FB00287DD1206809
:102B500005F090FB002878D0D5F80808C0F30D20C8
:102B6000C4F8D404206805F085FB800704D52068EC
:102B7000416901F002014161206805F07BFBC1065B
:102B800004F29C40009034D52068816921F0100146
:102B900081612F6A07F00F0000EBC00004EB800694
:102BA000C7F3434006F51576022802D0062811D057
:102BB0001AE047F6F070074216D0C7F30A1217461C
:102BC0002846F16805F05AFBF0683844F0607069F7
:102BD000384408E008222846009905F04FFB706948
:102BE000C7F30A11084470612068816941F010013F
:102BF0008161206805F03EFB00034FF0080B4FF0A9
:102C0000000A4FF001097CD50026206805F011FB71
:102C1000074674E0F80770D0F1B2206805F022FB97
:102C20008046C00707D005EB4611C1F8089B314626
:102C3000204602F031FC5FEA087024D505EB46110E
:102C4000C1F808BB2068016C00E023E200EB4610ED
:102C50000191D0F8082BFB4B994205D9110403D5FB
:102C60004FF40041C0F8081B204600F04FFAF54928
:102C70000198884207D9A079012804D12068012150
:102C8000009A05F0B1F85FEAC86004D505EB46117B
:102C90001020C1F8080B5FEA88701DD5686900062E
:102CA00005D5D5F8040840F48061C5F8041806EB92
:102CB000C60004EB800090F8571200F5157001294A
:102CC00005D180F803A0F1B2204600F0E9F905EB48
:102CD00046110220C1F8080B5FEA886004D505EBB5
:102CE00046102021C0F8081B5FEA884005D505EB97
:102CF00046104FF40051C0F8081B7F08761C002FC7
:102D000088D1206805F0B6FA40036ED5206805F03A
:102D100089FA0746002666E0F80762D0F1B220681B
:102D200005F08EFA8046C00723D006F00F01D5F8D3
:102D3000342809FA01F18A43C5F8342805EB461115
:102D4000C1F80899A07901280FD106EBC60004EB61
:102D50008000D0E907211144016236B9606A20B9C8
:102D600020680121009A05F03FF8F1B22046FFF7F4
:102D7000F2FD5FEA087003D505EB4611C1F808B90A
:102D80005FEAC86004D505EB46111020C1F80809B8
:102D90005FEA486004D505EB46104021C0F80819E9
:102DA0005FEA887016D53146284605F00CFA06EB26
:102DB000C60004EB8000C17D1430012905D180F8E4
:102DC00003A0F1B2204600F067F905EB461102209E
:102DD000C1F808095FEA086003D53146204602F0D1
:102DE000C1FB7F08761C002F96D1206805F042FABF
:102DF000002811DAD5F8040820F00101C5F80418FC
:102E000094F8CC0401282BD0204600F064F9206807
:102E1000416901F000414161206805F02BFA00058D
:102E20000BD5D5F80808C00702D0204600F076F987
:102E30002068416901F400614161206805F01AFAD7
:102E4000C00467D5D5F8040820F00100C5F80408CF
:102E50001021206805F0B7F900214FF67F3220E0FD
:102E600084F8CCA400212046FFF770FDCFE700BF17
:102E700005EB4110C0F80829D0F8003923F40013FD
:102E8000C0F80039C0F8082BD0F8003B23F4001339
:102E9000C0F8003BD0F8003B43F00063C0F8003BB3
:102EA000491C20798842E3D8D5F81C0840F001116C
:102EB000C5F81C18E07B002828460DD0D0F88408FF
:102EC00040F00B01C5F88418D5F8440840F00B0118
:102ED0002846C5F844180DE0D0F8140842F22B013A
:102EE0000843C5F81408D5F8100840F00B0128462F
:102EF000C5F81018D0F8000820F4FE61C5F80018D5
:102F0000A1792068009A04F06FFF2068416901F4FC
:102F100080514161206805F0ADF9800415D5206825
:102F200004F054FF206805F06CF9E07100F0C8F976
:102F30000146E279206805F0D1F9204600F0B4F8A6
:102F40002068416901F400514161206805F092F95F
:102F5000000707D5204600F0C2F82068416901F05B
:102F600008014161206805F085F9000616D5A869B9
:102F700020F08001A96101260DE000BF06EBC6002C
:102F800004EB800090F85702012803D1F1B22046EB
:102F9000FFF7F8FC761C2079B042EFD8206805F0E6
:102FA00069F9C0021FD501264F4614E005EB461013
:102FB000D0F8001906EBC60004EB8002107E012851
:102FC00008D1002906DAF0B240F08001D77520461A
:102FD000FFF7D8FC761C2079B042E7D82068416919
:102FE00001F480114161206805F044F9800234D574
:102FF00001204A4629E000BF05EB4011D1F8001B33
:1030000000EBC00304EB830393F85862012E1BD13D
:10301000002919DA94F8D46401F4803106F001062D
:10302000B14211D183F85722A96941F08003AB6105
:103030006969090608D4D5F8040840F40070C5F899
:10304000040805E00A30544F401C21798142D3D84E
:103050002068416901F400114161206805F00AF916
:10306000400007D52046FFF772FC2068416901F057
:1030700080414161206805F0FDF840070AD52068CD
:103080004568680702D52046FFF778FC206841684C
:1030900029434160BDE8FC9FD0F8E00404F008BB80
:1030A000D0F8E00404F019BB70B504460125E079BE
:1030B00000280ED0022801D0FEF749FA2946D4F89C
:1030C000E00404F07BFBD4F8E004BDE8704004F0B9
:1030D0002EBB0025F2E7D0F8E00404F058BBD0F88E
:1030E000E00404F05EBB10B5044690F89404012897
:1030F0000AD0012084F894046174206805F0DDF89A
:10310000002084F8940410BD022010BDD0F8E02403
:1031100000F29C41104604F05DBB000010B504466F
:10312000D4F8E00404F091FB2068D0F8001E41F0D0
:103130000101C0F8001EE07A002804D002480168AE
:1031400041F00601016010BD10ED00E02DE9F047EF
:103150000E46050065D0DFF81481D8F80000F7B2FC
:1031600000F00700B04207D288F80070D8F80000DD
:1031700000F00700B04254D128683D4C810712D5B9
:10318000400703D5206840F4E0502060287800070D
:1031900003D5206840F4604020602068A96820F0D2
:1031A000F000084320602878C0072DD030496868B7
:1031B0000839012812D0022813D0032811D0096839
:1031C000890700292DDA216821F0030101432160DC
:1031D000FFF74AF8814641F2883A0EE00968890310
:1031E000EFE709688901ECE7FFF73EF8A0EB09017A
:1031F000514502D90320BDE8F0872068696800F0D6
:103200000C00B0EB810FEFD1D8F80010404601F070
:103210000701B14207D90770006800F00700B0420B
:1032200001D00120E7E72878400705D52068E96844
:1032300020F4E050084320602878000706D5206875
:10324000296920F4604040EAC100206000F05EF887
:103250002168084AC1F30311515CC840064908605F
:1032600006480068FFF7CAFA0020C4E7003C0240A5
:103270000838024060C200083C00002034000020F2
:103280000F2202600C4A136803F0030343601368C3
:1032900003F0F0038360136803F4E053C360126823
:1032A0004FF4E05303EAD20202610448006800F0E0
:1032B000070008607047000008380240003C0240E8
:1032C00001480068704700003C00002004480549A0
:1032D00000680968044AC1F38221515CC840704704
:1032E0003C0000200838024070C20008044805492C
:1032F00000680968044AC1F34231515CC840704714
:103300003C0000200838024070C20008154810B583
:10331000006810F00C02144813D01449042A0FD08E
:10332000082A0ED10F4C241F2268236802F03F02A6
:103330005B0207D52068C0F38810A0FB010106E0FE
:10334000084610BD2168C1F38811A1FB00010023CC
:10335000FCF796FF2168C1F30141491C4900B0FB0D
:10336000F1F010BD083802400024F400001BB70043
:103370002DE9F84F04006ED02078DFF84C93C00799
:10338000A9F104054AD009F104000168C1F38101E3
:10339000012908D00068C0F3810002280AD1D9F8B9
:1033A0000000400206D52868800337D560680028F1
:1033B000E1D033E06068B0F5803F10D0B0F5A02FC9
:1033C000286810D020F480302860286820F48020FD
:1033D00028606068A8B1FEF747FF06460DE0286840
:1033E00040F48030F4E740F480202860F7E700BF25
:1033F000FEF73AFF801B642873D828688003F7D54E
:103400000CE0FEF731FF064605E000BFFEF72CFF9B
:10341000801B6428F0D828688003F7D42078DFF870
:10342000AC8280074FF0000A3ED5A748001D016816
:1034300011F00C0F08D00068C0F3810002280BD1F6
:10344000D9F80000400207D42868800716D5E06844
:10345000012800D112E033E1E068B8B10120C8F8DA
:103460000000FEF701FF064605E000BFFEF7FCFE88
:10347000801B0228C0D828688007F7D528682169F2
:1034800020F0F80040EAC10028600DE0C8F800A074
:10349000FEF7EAFE064604E0FEF7E6FE801B022881
:1034A0001FD828688007F7D42078000722D5864FD8
:1034B00087486169703771B101210160FEF7D4FE60
:1034C000064604E0FEF7D0FE801B022809D83868C3
:1034D0008007F7D50EE0C0F800A0FEF7C5FE06464F
:1034E00005E082E0FEF7C0FE801B02287DD8386828
:1034F0008007F7D42078400768D5DFF8CCB10027E3
:103500000BF13C0BDBF80000C0000BD4DBF8001023
:1035100041F08051CBF80010DBF80000012700F0EB
:10352000805000906B4E3068C00510D4306840F475
:1035300080703060FEF798FE009005E0FEF794FE84
:103540000099401A022850D83068C005F6D55E4E62
:10355000A0686C3601280FD00528306810D020F004
:1035600001003060306820F004003060A068B8B11D
:10357000FEF77AFE00900FE0306840F00100F4E7BB
:1035800040F004003060F7E7FEF76EFE0099411A44
:1035900041F28830814266D830688007F4D50EE069
:1035A000FEF762FE009007E0FEF75EFE0099411A0A
:1035B00041F28830814256D830688007F4D42FB168
:1035C000DBF8001021F08051CBF80010A069C8B3DF
:1035D0003D49091D0968C1F3810102294AD0022829
:1035E000504607D0C8F8600000E03CE0FEF73CFE23
:1035F00004463BE04746C8F86000FEF735FE064645
:1036000005E000BFFEF730FE801B02282BD828689B
:103610008001F7D4D4E907010843A16A2E4A49087A
:1036200002EB0141626A41EA8211084394F82C10CE
:1036300040EA0161C9F8001001203866FEF714FE67
:10364000044606E03EE000BFFEF70EFE001B022827
:1036500009D828688001F7D534E000BFFEF704FEE2
:10366000001B022802D90320BDE8F88F28688001DA
:10367000F4D427E00128F7D0D9F80000E26900F47B
:10368000800191421CD1226A00F03F01914217D182
:1036900047F6C071626A0140B1EB821F10D1A26A85
:1036A0004FF0FF3300F4403103EB5202B1EB024F15
:1036B00006D194F82C1000F07060B0EB016F01D0CF
:1036C0000120D1E70020CFE7043802400000474244
:1036D000800E4742007000400000FFFF70B50400FC
:1036E00009D0606A002540B125616561A56294F842
:1036F000510040B10CE0012070BD6068B0F5827FE0
:10370000F4D0E561F2E784F85050204600F044F828
:10371000022084F851002068016821F04001016016
:10372000A088218900F4827001F404410843A18932
:1037300001F400610843217C01F002010843217D6E
:1037400001F001010843218B01F400710843217F3E
:1037500001F03801084394F8201001F0800108437B
:10376000218D01F40051084321680860A0690421FB
:1037700001EA104094F8241001F010010843216878
:1037800048602068C16921F40061C161656501205C
:1037900084F85100002070BD2DE9F04387B0064643
:1037A00014216846FCF7B6FD34493068884261D17F
:1037B00033480025016841F480510160006800F43D
:1037C000805005902E481438016841F002010160D4
:1037D000016801F002010591016841F001010160F9
:1037E0000068022400F001000590182001274FF026
:1037F00003084FF005098DE8910369462148FEF75B
:1038000031FC80208DE8910369461F48FEF72AFCB1
:103810001F4C1E484FF0C0672060C4E901754FF48B
:103820008068C4E9035865617812A561C4E907504E
:1038300020466562FEF748FB08B1FDF788FEF46498
:10384000A663134C114860341830E4E802074020A6
:10385000A4E82101C00244F81459A561C4E9075045
:103860000B4865626030FEF72FFB08B1FDF76FFE75
:10387000B464A66307B0BDE8F083000000300140E7
:10388000443802400004024000000240406402400C
:10389000880500202DE9FF4F81B01D469346044660
:1038A0004FF001090E9EFEF7DFFC074694F8510029
:1038B0006168012806D0B1F5827F3CD1A168C9BBFF
:1038C000042838D10298002871D0BBF1000FFBD03A
:1038D000002DF9D094F8500001282CD04FF0010AA7
:1038E00084F850A094F85100042802D0052084F8F0
:1038F00051004FF00008C4F85480C4F838B0E58790
:10390000A58702992163E586A586C4F84080C4F89E
:10391000448020680168490603D4016841F04001F1
:103920000160E068B0F5006F606808D0F0B3012D69
:1039300049D081E0FFE7022005B0BDE8F08F08B173
:10394000012D39D1206B21680088C860206B801C54
:103950002063E08E401EE0862EE0206881688907A3
:103960000FD5E18E69B1B9F1010F0AD1216B098838
:10397000C160206B801C2063E08E401EE0864FF00B
:10398000000920688168C9070CD0E18F51B1C06877
:10399000A16B0880A06B801CA063E08F401EE087B5
:1039A0004FF00109FEF760FCC01B01E00BE067E08F
:1039B000B04201D3701C50D1E08E0028CDD1E08FF1
:1039C0000028CAD13EE0206B216800780873206B84
:1039D000401C2063E08E401EE0862DE02068816858
:1039E00089070FD5E18E69B1B9F1010F0AD1216BB9
:1039F00009780173206B401C2063E08E401EE08636
:103A00004FF0000920688168C9070CD0E18F51B1DF
:103A1000C068A16B0870A06B401CA063E08F401EC3
:103A2000E0874FF00109FEF71FFCC01BB04202D334
:103A3000701C01D011E086B1E08E0028CED1E08F5D
:103A40000028CBD13A463146204602F0BFFF50B1A4
:103A50002020606584F8508012E084F851A084F83A
:103A60005080032068E7A06818B92068C1688068A2
:103A7000009084F851A084F85080606D0028F1D047
:103A8000012059E77047704710B590F83C20012A93
:103A900022D0012280F83C20CA688C6822F440724F
:103AA00022434C6822F4806222430C6822F40062B4
:103AB00022430C6922F4805222434C6922F40052C2
:103AC0002243C969002322F480420A4301684A6400
:103AD00080F83C30002010BD022010BD70B590F879
:103AE0003C20012A32D0012480F83C40022280F898
:103AF0003D2003685A689D6822F070060A683243C8
:103B00005A60134B02689A4214D0B2F1804F11D020
:103B1000104B9A420ED0104B9A420BD00F4B9A4248
:103B200008D00F4B9A4205D00E4B9A4202D00E4B52
:103B30009A4204D1496825F080031943916080F8C6
:103B40003D40002180F83C10084670BD022070BD49
:103B5000000001400004004000080040000C00404C
:103B600000040140004001400018004010B504006E
:103B700003D094F83D0010B107E0012010BD0020F3
:103B800084F83C00204600F01FF8022084F83D0035
:103B9000211D206803F01AF8012084F8460084F8FB
:103BA0003E0084F83F0084F8400084F8410084F827
:103BB000420084F8430084F8440084F8450084F807
:103BC0003D00002010BD000008B5184902681848E3
:103BD0008A4207D1016841F001010160006800F0EC
:103BE00001000BE01249134B091F9A4208D10868E3
:103BF00040F004000860086800F00400009008BD70
:103C00000D4B9A4207D1086840F008000860086828
:103C100000F00800F2E709498A42F0D1016841F05A
:103C200002010160006800F00200E7E700000140C7
:103C30004438024000080040000C004000040140ED
:103C400090F83D10012901D001207047022180F831
:103C50003D1000681149884214D0B0F1804F11D056
:103C60000F4988420ED00F4988420BD00E49884236
:103C700008D00E49884205D00D49884202D00D492E
:103C8000884204D1816801F00701062903D0016848
:103C900041F0010101600020704700000000014078
:103CA0000004004000080040000C004000040140F7
:103CB000004001400018004090F83D10012901D05B
:103CC00001207047022180F83D100168CA6842F067
:103CD0000102CA6000681149884214D0B0F1804FD7
:103CE00011D00F4988420ED00E4988420BD00E49A0
:103CF000884208D00D49884205D00D49884202D03B
:103D00000C49884204D1816801F00701062903D0DB
:103D1000016841F00101016000207047000001408E
:103D20000004004000080040000C00400004014076
:103D3000004001400018004070B5044690F83C0077
:103D40000025012817D0012684F83C60022084F861
:103D50003D002068826822F0770222F47F42826070
:103D60000868502838D00DDC20284FD005DC90B3EF
:103D7000102811D14AE0022070BD302846D04028DA
:103D80000AD13BE060282FD070280DD0B0F5805FBD
:103D900003D0B0F5005F12D0012584F83D6000200B
:103DA00084F83C00284670BDCB68D1E90121206829
:103DB00002F085FF2068816841F0770109E0CB6857
:103DC000D1E90121206802F07AFF2068816841F47E
:103DD00080418160E1E719E0CA684968206803F022
:103DE00043F85021206806E0CA684968206803F05B
:103DF0004CF86021206802F06CFFCEE7CA68496881
:103E0000206803F031F840212068F4E72268014679
:103E10001046F0E770472DE9F04104460068C66897
:103E200005694FF00007A90713D5B10711D5F91E91
:103E3000016101202077206880698007204602D038
:103E4000FFF7E8FF04E000F0EDF8204600F07FF90E
:103E50002777680716D5700714D521686FF004001E
:103E60000861022020772068806910F4407F204696
:103E700002D0FFF7CFFF04E000F0D4F8204600F0B6
:103E800066F92777280715D5300713D521686FF015
:103E900008000861042020772068C0698007204658
:103EA00002D0FFF7B7FF04E000F0BCF8204600F0B6
:103EB0004EF92777E80616D5F00614D521686FF07D
:103EC00010000861082020772068C06910F4407F46
:103ED000204602D0FFF79EFF04E000F0A3F8204642
:103EE00000F035F92777E80708D0F00706D02168F9
:103EF0006FF001000861204600F08EF9280608D511
:103F0000300606D521686FF0800008612046FFF773
:103F1000B9FD680608D5700606D521686FF0400027
:103F20000861204600F082F9A8060AD5B00608D537
:103F300021686FF0200008612046BDE8F041FFF7DE
:103F4000A2BDBDE8F081000030B587B00446142161
:103F50006846FCF7DFF92368294C2A480221012230
:103F6000A34210D1036843F010030360006800F01F
:103F7000100005904FF420608DE80700CDE9031292
:103F80006946214811E0214D0324AB4211D1036859
:103F900043F008030360006800F00800059028144F
:103FA0008DE81700049169461948FEF75BF807B0E1
:103FB00030BD184DAB4210D1036843F0800303605D
:103FC000006800F0800005904FF4E0508DE8070095
:103FD0000391049169461048E7E7104DAB42E6D1E2
:103FE000036843F004030360006800F004000590D8
:103FF00040208DE80700CDE9031469460848D4E75E
:10400000000001403038024000100240000800402B
:10401000000C0240000C0040001C02400004014063
:1040200000080240704770B5044690F83C00002636
:104030000D4601280FD0012084F83C006AB1042A03
:104040001DD0082A2FD00C2A3FD00126002084F84A
:104050003C00304670BD022070BD206802F042FE78
:104060002068816941F0080181612068816921F03F
:1040700004018161206881692A69114311E0206887
:1040800002F060FE2068816941F40061816120686E
:10409000816921F480618161206881692A6941EA2E
:1040A00002218161D2E7206802F082FE2068C169A6
:1040B00041F00801C1612068C16921F00401C161BA
:1040C0002068C1692A69114311E0206802F0A4FE4A
:1040D0002068C16941F40061C1612068C16921F4AF
:1040E0008061C1612068C1692A6941EA0221C16118
:1040F000ACE710B5040003D094F83D0010B107E020
:10410000012010BD002084F83C00204600F01EF87D
:10411000022084F83D00211D206802F057FD012097
:1041200084F8460084F83E0084F83F0084F840009C
:1041300084F8410084F8420084F8430084F8440085
:1041400084F8450084F83D00002010BD704770479A
:1041500010B50446022249B104290ED0082913D013
:1041600094F84100012816D0012010BD94F83E00BB
:104170000128F9D184F83E200FE094F83F0001288F
:10418000F2D184F83F2008E094F840000128EBD1F8
:1041900084F8402001E084F841200122206802F0E8
:1041A00081FD16492068164A884201D0904203D109
:1041B000436C43F4004343642068884213D0B0F159
:1041C000804F10D00F4988420DD00F4988420AD045
:1041D0000E49884207D0904205D00D49884202D04E
:1041E0000C49884204D1816801F00701062903D0F7
:1041F000016841F001010160002010BD0000014094
:10420000000401400004004000080040000C004091
:10421000004001400018004000680349884201D175
:10422000FEF7CABA7047000000100040704770B532
:10423000040004D094F84100002510B106E00120EC
:1042400070BD84F84050204600F024F8242084F803
:1042500041002068C16821F40051C160204602F08D
:104260004DFE2068016921F4904101612068416997
:1042700021F02A0141612068C16841F40051C16008
:104280006564202084F8410084F8420065630020C2
:1042900070BD00002DE9F04F87B004461421684638
:1042A000FCF738F87A48DFF8E4811438D4F800C015
:1042B000774B022701220321002506154FF0070B3B
:1042C000C44549D1D3F800C04CF0100CC3F800C06D
:1042D0001B6803F010030593036843F002030360B7
:1042E000036803F002030593036843F001030360CE
:1042F0000068924600F00100059080208DE881045E
:104300008946CDE9039BD84669466248FDF7AAFE77
:1043100070108DE88104CDE9039869465E48FDF789
:10432000A1FE5F4F5D4807F10808386070047860AF
:10433000402088E861007D618002BD61C7E90750C7
:1043400038467D62FDF7C0FD08B1FDF700F9A763AF
:10435000BC6307B0BDE8F08FDFF84881C4453CD1AD
:104360004B4A121F136843F480231360126802F44F
:1043700080220592026842F0040202600068CDE9E2
:10438000025100F0040005904FF44060CDE90007B1
:10439000CDF810B069464448FDF764FE404F4348ED
:1043A000603738604FF00060C7E90105C7E9035680
:1043B0007D618012BD61C7E9075038467D62FDF717
:1043C00083FD08B1FDF7C3F8E7630022042127202D
:1043D000BC63FEF789FA272054E0DFF8D480C44597
:1043E000B7D1D3F800C04CF0200CC3F800C01B6854
:1043F00003F020030593036843F040030360006863
:10440000029200F0400005904FF48440CDE900078F
:104410000820CDE9031069462648FDF723FE204F0A
:104420001E48C037903838604FF02068C7E90185D2
:10443000C7E903567D61BD61FD613D6238467D621D
:10444000FDF742FD08B1FDF782F8E763BC6313484E
:10445000194F1838E7E80208402061C7164847F8A6
:104460001459BD61FD613D627D62FDF72DFD08B10E
:10447000FDF76DF8A763002205214720BC63FEF716
:1044800033FA4720FEF722FA63E7000000100140EC
:10449000443802400004024000000240B864024078
:1044A0004008002000480040000802402860024008
:1044B0000014014000180240600900202DE9F84F67
:1044C000044690F842009A4616460D46202802D02F
:1044D0000220BDE8F88FB5B1AEB1002060642221A2
:1044E00084F842102063FDF7BFFEA6858146E6856D
:1044F000A0684FF480582027404501D1206920B1A1
:104500002E46002529E00120E3E7002625E04B4662
:10451000002220212046CDF800A002F075FD18B140
:1045200084F842700320D4E726B1A06840451AD031
:1045300038B108E020684068C0F3080025F8020B95
:1045400008E0206978B12068406800F07F0000BF73
:1045500006F8010BE08D401EE085E08D0028D6D1E5
:1045600084F84270B5E720684068F1E72DE9F84328
:10457000044690F84100984616460D46202802D081
:104580000220BDE8F88385B17EB10020606421205F
:1045900084F84100FDF768FEA6848146E684A068A1
:1045A0002027B0F5805F02D003E00120E9E7206911
:1045B00010B12E4600250EE000260CE0802120469A
:1045C00002F022FDA8B9C6B116F8010B21684860B7
:1045D000E08C401EE084E08C4B464FF00002CDF8AA
:1045E00000800028EAD14FF04001204602F00CFD87
:1045F00040B184F841700320C3E735F8020BC0F3E3
:104600000800E3E784F841700020BAE7FEE701689C
:104610004A69D24352050FD46FF480624A61002187
:1046200040F8301F202242738173026942F0040275
:104630000261017301207047002070472DE9F84F97
:104640000446006889460B9D01689846174641F468
:10465000806101602068016841F48071016000950B
:104660004FF0011B0022594620460A9B00F0E4F857
:104670004FF4007A40B120680068C00501D5C4F845
:1046800040A00320BDE8F88F216809F0FE00086112
:104690002B46284920460A9A00F016F9F0BB2068FC
:1046A0004169806900902A4620460A9900F0A2F9E3
:1046B00040B1206C04283AD12068016841F40071AF
:1046C000016034E0FEB2B8F1010F09D02168380A68
:1046D00008612A4620460A9900F08CF90028E8D1A2
:1046E000206806612A4620460A9900F083F90028CE
:1046F000DFD12068016841F48071016000950022DB
:10470000594620460A9B00F097F80028B3D121684B
:1047100009F0FF0040F00100086100E007E02B46CF
:10472000044920460A9A00F0CFF80028AAD00120B8
:10473000A8E70000020001002DE9F84304460068E4
:104740000D46DDE9089701689846164641F48071E8
:1047500001604B4600224FF001112046009700F007
:104760006BF848B120680068C00502D54FF40070AE
:1047700020640320BDE8F883216805F0FE0008618D
:104780003B464A461549204600F09EF888B9206805
:104790004169806900903A464946204600F02AF96E
:1047A00048B1206C042804D12068016841F40071EC
:1047B00001600120DEE7F5B2B8F1010F09D02168F0
:1047C000300A08613A464946204600F013F90028AD
:1047D000E7D1206805610020CCE70000020001005D
:1047E00070B516460D4604461EE02046FFF70FFF43
:1047F00008B1012070BD681C16D0FDF735FD801B87
:10480000A84200D885B920684069C04340070BD54D
:10481000002044F8300F20216173A073216941F01A
:10482000200121612073E4E720684069C04340070C
:10483000DBD4002070BD00002DE9F04798461746F4
:104840000D460446C1F30746DDF820902AE000BF7C
:10485000B8F1FF3F26D0FDF707FDA0EB0901414568
:1048600002D8B8F1000F1DD12068012E16D0806942
:1048700025EA00000004000C12D00020B84211D13B
:10488000002044F8300F20216173A073216941F0AA
:104890002001216120730120BDE8F0874069E7E72E
:1048A0000120EBE72068012E0AD0806925EA00008C
:1048B0000004000C06D00020B842C9D00020EBE76D
:1048C0004069F3E70120F7E72DE9F04798461646DF
:1048D0000D4604464FF000094FF0200AC1F3074788
:1048E00023E020684069C043400515D42068016872
:1048F00041F40071016021686FF480604861C4F880
:10490000309084F83DA084F83E90216C41F0040181
:10491000216484F83C9021E0701C06D0FDF7A4FCD3
:10492000A0EB0800B04203D816B1012F1FD021E040
:104930002068012F15D0806925EA00000004000CD2
:1049400018D000BF44F8309F84F80DA084F80E9072
:10495000216941F02001216184F80C900120BDE81B
:10496000F087406925EA00000004000CEAD12068C5
:10497000406901E02068806925EA00000004000C1D
:10498000AFD1ECE72DE9F041002590460E460446F4
:10499000202728E04069C043C0060CD454F8301BDF
:1049A0006FF01000486144F810596777A577206AC6
:1049B0002062257714E0FDF757FCA0EB0800B04219
:1049C00000D886B920684069C04340060BD544F83A
:1049D000305F6773A573206940F020002061257364
:1049E0000120BDE8F08120684169C9434906D1D45E
:1049F0000020F6E770B516460D4604461EE0204638
:104A0000FFF705FE08B1012070BD681C16D0FDF748
:104A10002BFC801BA84200D885B920684069C043A0
:104A200000060BD5002044F8300F20216173A073DD
:104A3000216941F0200121612073E4E72068406989
:104A4000C0430006DBD4002070BD00000EB5072077
:104A500000E0642006F012F9FCF75AFA0028F8D1B9
:104A600002E0642006F00AF905F080FE0028F8D183
:104A7000794A101DCDE90102A2F1100A0AF10401E0
:104A8000FCF75EFA5346A3F134020AF14807A2F19B
:104A90000C01A1F10C00009705F022FDA7F17C02AA
:104AA000A2F10C0101F11800FBF7A2FFA7F18808A1
:104AB000A7F1A00598ED000AA5F10C0685ED000A06
:104AC000A5F1180986ED000A89ED000A98ED010AA2
:104AD000002085ED010A86ED010A89ED010A98EDB5
:104AE000020A85ED020A86ED020A89ED020A06F045
:104AF00001F907F0EDF9594C594920611020C861BE
:104B00000846FEF7EBFD08B1FCF721FD53490822EA
:104B10002031A1F1080001F0E1FE012020714FF0E9
:104B2000FF3B5946012006F0E7FD0128F9D1207826
:104B3000000708D5207820F0080020704748019928
:104B40002130FCF7B5F9607840070BD5607820F08C
:104B500004006070404A0AF104011032A2F12A00F8
:104B6000FCF760F9A078400708D5A07820F0040091
:104B7000A0703A4802991630FCF7BCFA364B009701
:104B8000103BA3F13402A2F10C01A1F10C0005F0DD
:104B9000A7FC96ED000ADFED330A89ED000A95EDDA
:104BA000001A2D4B86ED001A61EE201A9FED2E1A89
:104BB00098ED002A443B40EE011A9FED2C0AA3F128
:104BC000240202F10C0101F1240042EE001AC5EDAD
:104BD000001AD6ED011AC9ED011A95ED012A86EDEC
:104BE000012A22EE202A01EE812AD8ED011A01EED7
:104BF000802A85ED012AD6ED021AC9ED021A95ED3B
:104C0000022A86ED022A62EE200A41EE810A98ED20
:104C1000021A41EE000A9FED160AC5ED020AFCF7E2
:104C200041F80D4B203B1A1F111FA1F1100005F098
:104C3000CFFBE07810F00100E0703FF472AFE07855
:104C400020F00100E070E07840F00200E070381DD4
:104C500005F0CCFD65E7000078470020DC0000206F
:104C6000300500205AF8F63F5D896EBFD5A9183B84
:104C70006F12833A0F4810B50D490160032141605E
:104C800000214FF410228160C0E903124FF400129A
:104C90004261017641768176C17601774177FCF7F2
:104CA000C8FE002803D0BDE81040FCF750BC10BD82
:104CB000006400408C0400200F4810B50D490160CD
:104CC0000321416000214FF410228160C0E90312EA
:104CD0004FF400124261017641768176C176017708
:104CE0004177FCF7A6FE002803D0BDE81040FCF792
:104CF0002EBC10BD00680040B4040020214808B557
:104D0000016841F480010160016801F480010091B3
:104D1000016841F4001101600068002200F40010F5
:104D2000009005210C20FDF7DFFD0C20FDF7CEFDE6
:104D3000002205213920FDF7D7FD3920FDF7C6FDFA
:104D4000002205213A20FDF7CFFD3A20FDF7BEFDF8
:104D5000002205213B20FDF7C7FD3B20FDF7B6FDF6
:104D6000002205214520FDF7BFFD4520FDF7AEFDE2
:104D7000002205214620FDF7B7FDBDE8084046208A
:104D8000FDF7A4BD3038024010B5CEB01C223C491E
:104D90006846FBF7A6FA0021684605F07CFF394C0F
:104DA00037491C2220601C3107A8FBF79AFA002122
:104DB00007A805F070FF324960601C2238310EA848
:104DC000FBF78FFA00210EA805F065FF2C49A060C3
:104DD0001C22543115A8FBF784FA002115A805F010
:104DE0005AFF2749E0601C2270311CA8FBF779FAB2
:104DF00000211CA805F04FFF214920611C228C31A5
:104E000023A8FBF76EFA002123A805F044FF1C49F4
:104E100060611C22A8312AA8FBF763FA00212AA8A6
:104E200005F039FF1649A0611C22C43131A8FBF7F7
:104E300058FA002131A805F02EFF1149E0611C222B
:104E4000E03138A8FBF74DFA002138A805F023FF20
:104E50000B4920621C22FC313FA8FBF742FA0021DB
:104E60003FA805F018FF60621C22074946A8FBF71F
:104E700038FA002146A805F00EFFA0624EB010BD22
:104E800024C10008000000203CC200082DE9F04FBA
:104E900087B014216846FBF73DFA69484FF0000BD4
:104EA000016841F002010160016801F00201059111
:104EB000016841F040010160016801F04001059185
:104EC000016841F001010160016801F001010591F3
:104ED000016841F008010160016801F008010591D5
:104EE000016841F004010160016801F004010591CD
:104EF000016841F480710160016801F480710591DD
:104F0000016841F080010160016801F080010591B4
:104F1000016841F01001016000684A4D00F0100086
:104F200005900122C0212846FDF799F9464F01223C
:104F300040213846FDF793F9DFF810810122102156
:104F40004046FDF78CF9DFF808914FF4C046012286
:104F500031464846FDF783F9DFF8F8A001221146F3
:104F60005046FDF77CF9C0200124CDE90004032060
:104F7000CDE9024069462846FDF774F84020CDE9A6
:104F800000040294694638460394FDF76BF8092043
:104F900000904FF40410CDE9010469463846FDF74E
:104FA00061F8CDE9004B694640460294FDF75AF896
:104FB0001020CDE90004022569464046CDE90245AE
:104FC000FDF750F8302000904FF48810CDE901042F
:104FD00069462148FDF746F8CDE900646946484630
:104FE000CDE90245FDF73EF800946946504601942C
:104FF000CDE90245FDF736F8062100220846FDF707
:1050000073FC0620FDF762FC002205210920FDF754
:105010006BFC0920FDF75AFC002205210A20FDF750
:1050200063FC0A20FDF752FC002205211720FDF742
:105030005BFC1720FDF74AFC07B0BDE8F08F0000CD
:1050400030380240002002400018024000000240B8
:105050000010024000040240000802400D4810B554
:105060000B4901600C49416000214FF4804281608E
:10507000C0E9031241618161C1610162FDF7FAF883
:10508000002803D0BDE81040FCF761BA10BD000055
:10509000005C0040DC040020801A0600104810B5B7
:1050A0000E4901604FF4827141600021022281604B
:1050B000C0E9031201224261520282613822C0E932
:1050C0000721416281620A21C162FEF707FB0028C5
:1050D00003D0BDE81040FCF73ABA10BD00300140E3
:1050E0003005002010B596B000240F941094119450
:1050F000129413941C2168461494FBF70BF9202199
:1051000007A8FBF707F92C482A490160A721C0E945
:10511000011444F61F61C0E9031444618461FEF781
:1051200025FD08B1FCF713FA4FF480500F900FA93A
:105130002148FEF701FE08B1FCF709FA1E48FEF708
:10514000D8FF08B1FCF703FA139413A91A48149472
:10515000FEF7C4FC08B1FCF7FAF96020CDE90004C1
:10516000029403940494059400226946124806941C
:10517000FEF759FF08B1FCF7EAF9042269460E4828
:10518000FEF751FF08B1FCF7E2F90794089409947F
:105190004FF400500A94CDE90B4007A906480E943D
:1051A000FEF772FC08B1FCF7D2F90348FEF7CCFE1B
:1051B00016B010BD000001404806002010B58EB0AA
:1051C00000240794089409940A940B941C216846BF
:1051D0000C94FBF79FF81E481C490160A721C0E909
:1051E00001144FF6FF71C0E903148461FEF7BEFCA1
:1051F00008B1FCF7ACF94FF48050079007A91448A8
:10520000FEF79AFD08B1FCF7A2F91148FEF771FF0D
:1052100008B1FCF79CF90B940BA90D480C94FEF710
:105220005DFC08B1FCF793F96020CDE9000402941D
:105230000822694606480494FEF7F5FE08B1FCF71B
:1052400086F90348FEF780FE0EB010BD000800404E
:105250009006002010B58EB000240794089409949D
:105260000A940B941C2168460C94FBF753F82748CA
:105270002549C0E900144FF6FF71C0E902410461FD
:105280008461FEF773FC08B1FCF761F94FF48050BC
:10529000079007A91D48FEF74FFD08B1FCF757F925
:1052A0001A48FEF726FF08B1FCF751F90B940BA939
:1052B00016480C94FEF712FC08B1FCF748F9602080
:1052C000009042F21070CDE90104002269460F48B7
:1052D0000494FEF7A8FE08B1FCF739F904226946E8
:1052E0000A48FEF7A0FE08B1FCF731F9082269462A
:1052F0000648FEF798FE08B1FCF729F90348FEF7C7
:1053000023FE0EB010BD0000000C0040D8060020A7
:1053100010B596B000240F94109411941294139425
:105320001C2108A81494FAF7F5FF20216846FAF723
:10533000F1FF28482649C0E900144FF6FF71C0E983
:105340000241046144618461FEF710FC08B1FCF77E
:10535000FEF84FF480500F900FA91E48FEF7ECFCAA
:1053600008B1FCF7F4F81B48FEF7C3FE08B1FCF7E0
:10537000EEF8139413A917481494FEF7AFFB08B185
:10538000FCF7E5F86020CDE908040A940B940C942E
:105390000D94002208A90F480E94FEF744FE08B1B0
:1053A000FCF7D5F800944FF40050CDE90440029486
:1053B00001940394694607480794FEF765FB08B11A
:1053C000FCF7C5F80348FEF7BFFD16B010BD00009E
:1053D00000040140200700200C4810B50A49016074
:1053E0004FF4E1314160002181600C22C160C0E9CD
:1053F00004128161C161FEF71AFF002803D0BDE8E5
:105400001040FCF7A4B810BD001001406807002050
:105410000D4810B50B4901600C49416000214FF463
:1054200080628160C0E903120C22C0E90521C161DC
:10543000FEF7FDFE002803D0BDE81040FCF787B85A
:1054400010BD000000480040B0070020A086010009
:105450000C4810B50A4901604FF4E1314160002168
:1054600081600C22C160C0E904128161C161FEF754
:10547000DEFE002803D0BDE81040FCF768B810BD80
:1054800000140140F8070020FEE7FEE70148FDF7A1
:1054900055BB0000785000202DE9F04103680D460F
:1054A00004461E6C03EB4511D1F8080B94F806E096
:1054B0004FF400474FF0200C04F29C42BEF1010F64
:1054C00009D0DFF898E0764539D1020432D500BF23
:1054D000C1F8087B3FE0224B5FEA007E04D59E4284
:1054E00039D90004F4D436E05FEA806E02D5C1F801
:1054F00008CB30E010F0280F2DD19E4201D90004D6
:10550000E6D405EBC50004EB8000D1F8101BD0F801
:105510007432C1F31201591AC0F8681200F51570FF
:10552000ADB903691BB1C2681144C1600FE001212C
:1055300020680AE080060AD5C1F808CB07E035B933
:10554000D4F8640218B90021184602F04DFCE9B203
:105550002046FDF709FA0020BDE8F0810A31544FDA
:105560000A30544F2DE9F84F0E4601EBC60100EB0F
:10557000810481460568D4E909101434884202D9AF
:105580000120BDE8F88F081AA168814200D20846C0
:10559000C01C870805EB46181BE000BFA0EB010A02
:1055A000A068504500D282460AF10300870899F8A6
:1055B000060000901FFA8AF3F2B22846E16802F072
:1055C00001FFE16801EB0A00E060616901EB0A009C
:1055D0006061D8F8180980B2B84205D3D4E9040153
:1055E000814201D20028D9D1D4E90401884208D8E7
:1055F00006F00F0101208840D5F834188143C5F822
:1056000034180020BDE7000030B5144B1C686569F4
:1056100045F0400565611B68DC6844F01004DC60FF
:105620000F4B1C68256825F0010525601C6825685E
:10563000ED07F7D11D680B4CAC601C68E060186882
:105640000161186842601868016841F480210160B6
:105650001868016841F00101016030BDB007002009
:10566000A0080020044800402DE9F74FF84981B018
:105670000868026822F001020260F64802681368B6
:1056800023F00103136003E00A6822F001020A60BC
:10569000EF4909680A68D207F6D103E0016821F0F2
:1056A00001010160EB4800680168C907F6D1EA48CA
:1056B000EA4AEB4BD0F84C90E84CE94DE74EE84F06
:1056C000DFF898E3DFF894C3D9F80000E449483ADA
:1056D000603318341835303E78374FF4006A0CF1D7
:1056E000300C704535D9884205D0904203D098429D
:1056F00001D0A04201D1202026E0A84205D0B0422E
:1057000003D0B84201D0604501D150461CE0DFF81B
:10571000508308F13008404511D0DFF84083A8F1EC
:10572000180840450BD0DFF8388308F19008404551
:1057300005D0DFF8288308F14808404502D14FF42E
:10574000001001E04FF00060DFF81083A8F14C0872
:105750003AE0DFF80C8308F1A808404537D98842C1
:1057600005D0904203D0984201D0A04201D1202020
:1057700026E0A84205D0B04203D0B84201D060452F
:1057800001D150461CE0DFF8D88208F130084045CE
:1057900011D0DFF8C882A8F1180840450BD0DFF817
:1057A000C08208F19008404505D0DFF8B08208F1CA
:1057B0004808404502D14FF4001001E04FF000606E
:1057C000DFF89882A8F15008C8F8000074E0DFF80C
:1057D000908208F14808404537D9884205D0904268
:1057E00003D0984201D0A04201D1202026E0A84257
:1057F00005D0B04203D0B84201D0604501D1504637
:105800001CE0DFF85C8208F13008404511D0DFF879
:105810004C82A8F1180840450BD0DFF8448208F10B
:105820009008404505D0DFF8348208F1480840452B
:1058300002D14FF4001001E04FF00060DFF8208249
:10584000A8F11008C8F80C0036E0884205D0904254
:1058500003D0984201D0A04201D1202026E0A842E6
:1058600005D0B04203D0B84201D0604501D15046C6
:105870001CE0DFF8EC8108F13008404511D0DFF87A
:10588000DC81A8F1180840450BD0DFF8D48108F17D
:105890009008404505D0DFF8C48108F1480840452C
:1058A00002D14FF4001001E04FF00060DFF8B0814A
:1058B000A8F11008C8F80800D9F800004FF4806B70
:1058C000704535D9884205D0904203D0984201D026
:1058D000A04201D1102026E0A84205D0B04203D05A
:1058E000B84201D0604501D158461CE0DFF8708114
:1058F00008F13008404511D0DFF86081A8F11808A0
:1059000040450BD0DFF8588108F19008404505D09C
:10591000DFF8488108F14808404502D14FF4801073
:1059200001E04FF08060DFF83481A8F14C083AE0E4
:10593000DFF82C8108F1A808404537D9884205D006
:10594000904203D0984201D0A04201D1102026E01D
:10595000A84205D0B04203D0B84201D0604501D181
:1059600058461CE0DFF8F88008F13008404511D0B7
:10597000DFF8E880A8F1180840450BD0DFF8E08098
:1059800008F19008404505D0DFF8D08008F14808BC
:10599000404502D14FF4801001E04FF08060DFF805
:1059A000BC80A8F15008C8F800007AE0DFF8B080A9
:1059B00008F14808404537D9884205D0904203D0C5
:1059C000984201D0A04201D1102026E0A84205D083
:1059D000B04203D0B84201D0604501D158461CE026
:1059E000DFF87C8008F13008404511D0DFF86C808A
:1059F000A8F1180840450BD0DFF8648008F1900842
:105A0000404505D0DFF8548008F14808404502D1F0
:105A10004FF4801001E04FF08060DFF84480A8F17F
:105A20001008C8F80C003CE0884205D0904203D032
:105A3000984201D0A04201D110202CE0A84205D00C
:105A4000B04203D0B84201D060450BD1584622E0A5
:105A500088050020E8050020300500205864024039
:105A600010600240DFF8688940450FD0DFF8648994
:105A700040450BD0DFF8588908F16008404505D053
:105A8000DFF8508908F16008404502D14FF48010DA
:105A900001E04FF08060DFF83889A8F14008C8F8CD
:105AA0000800D9F80000704532D9884205D09042EC
:105AB00003D0984201D0A04201D1082023E0A8429F
:105AC00005D0B04203D0B84201D0604502D14FF4B6
:105AD000007018E0DFF8F88840450FD0DFF8F48850
